:020000040000fa
:080000000002040000000000f2
:020000040000fa
:04000800fa020000f8
:020000040000fa
:04000c000c030000e1
:020000040000fa
:0400100024030000c5
:020000040000fa
:0400140002030000e3
:020000040000fa
:0400180014030000cd
:020000040000fa
:04001c001c030000c1
:020000040000fa
:040020002c030000ad
:020000040000fa
:04002400f4030000e1
:020000040000fa
:04002800f4030000dd
:020000040000fa
:04002c00f4030000d9
:020000040000fa
:04003000f4030000d5
:020000040000fa
:04003400f4030000d1
:020000040000fa
:04003800f4030000cd
:020000040000fa
:04003c00f4030000c9
:020000040000fa
:04004000f4030000c5
:020000040000fa
:040044003403000081
:020000040000fa
:04004800f4030000bd
:020000040000fa
:04004c00f4030000b9
:020000040000fa
:04005000f4030000b5
:020000040000fa
:04005400f4030000b1
:020000040000fa
:04005800f4030000ad
:020000040000fa
:04005c00f4030000a9
:020000040000fa
:04006000f4030000a5
:020000040000fa
:04006400f4030000a1
:020000040000fa
:04006800f40300009d
:020000040000fa
:04006c00f403000099
:020000040000fa
:04007000f403000095
:020000040000fa
:04007400f403000091
:020000040000fa
:04007800f40300008d
:020000040000fa
:04007c00f403000089
:020000040000fa
:04008000f403000085
:020000040000fa
:04008400f403000081
:020000040000fa
:04008800f40300007d
:020000040000fa
:04008c00f403000079
:020000040000fa
:04009000f403000075
:020000040000fa
:04009400f403000071
:020000040000fa
:04009800f40300006d
:020000040000fa
:04009c00f403000069
:020000040000fa
:0400a000f403000065
:020000040000fa
:0400a400f403000061
:020000040000fa
:0400a800f40300005d
:020000040000fa
:0400ac00f403000059
:020000040000fa
:0400b000f403000055
:020000040000fa
:0400b400f403000051
:020000040000fa
:0400b800f40300004d
:020000040000fa
:0400bc00f403000049
:020000040000fa
:0400c000f403000045
:020000040000fa
:0400c400f403000041
:020000040000fa
:0400c800f40300003d
:020000040000fa
:0400cc00f403000039
:020000040000fa
:0400d000f403000035
:020000040000fa
:0400d400f403000031
:020000040000fa
:0400d800f40300002d
:020000040000fa
:0400dc00f403000029
:020000040000fa
:0400e000f403000025
:020000040000fa
:0400e400f403000021
:020000040000fa
:0400e800f40300001d
:020000040000fa
:0400ec00f403000019
:020000040000fa
:0400f000f403000015
:020000040000fa
:0400f400f403000011
:020000040000fa
:0400f800f40300000d
:020000040000fa
:0400fc00f403000009
:020000040000fa
:04010000f403000004
:020000040000fa
:04010400f403000000
:020000040000fa
:04010800f4030000fc
:020000040000fa
:04010c00f4030000f8
:020000040000fa
:04011000f4030000f4
:020000040000fa
:04011400f4030000f0
:020000040000fa
:04011800f4030000ec
:020000040000fa
:04011c00f4030000e8
:020000040000fa
:04012000f4030000e4
:020000040000fa
:04012400f4030000e0
:020000040000fa
:04012800f4030000dc
:020000040000fa
:04012c00f4030000d8
:020000040000fa
:04013000f4030000d4
:020000040000fa
:04013400f4030000d0
:020000040000fa
:04013800f4030000cc
:020000040000fa
:04013c00f4030000c8
:020000040000fa
:04014000f4030000c4
:020000040000fa
:04014400f4030000c0
:020000040000fa
:04014800f4030000bc
:020000040000fa
:04014c00f4030000b8
:020000040000fa
:04015000f4030000b4
:020000040000fa
:04015400f4030000b0
:020000040000fa
:04015800f4030000ac
:020000040000fa
:04015c00f4030000a8
:020000040000fa
:04016000f4030000a4
:020000040000fa
:04016400f4030000a0
:020000040000fa
:04016800f40300009c
:020000040000fa
:04016c00f403000098
:020000040000fa
:04017000f403000094
:020000040000fa
:04017400f403000090
:020000040000fa
:04017800f40300008c
:020000040000fa
:04017c00f403000088
:020000040000fa
:04018000f403000084
:020000040000fa
:04018400f403000080
:020000040000fa
:04018800f40300007c
:020000040000fa
:04018c00f403000078
:020000040000fa
:04019000f403000074
:020000040000fa
:04019400f403000070
:020000040000fa
:04019800f40300006c
:020000040000fa
:04019c00f403000068
:020000040000fa
:0401a000f403000064
:020000040000fa
:0401a400f403000060
:020000040000fa
:0401a800f40300005c
:020000040000fa
:0401ac00f403000058
:020000040000fa
:0401b000f403000054
:020000040000fa
:0401b400f403000050
:020000040000fa
:0401b800f40300004c
:020000040000fa
:0401bc00f403000048
:020000040000fa
:0401c000f403000044
:020000040000fa
:0401c400f403000040
:020000040000fa
:0401c800f40300003c
:020000040000fa
:0401cc00f403000038
:020000040000fa
:0401d000f403000034
:020000040000fa
:0401d400f403000030
:020000040000fa
:0401d800f40300002c
:020000040000fa
:0401dc00f403000028
:020000040000fa
:0401e000f403000024
:020000040000fa
:0401e400f403000020
:020000040000fa
:0401e800f40300001c
:020000040000fa
:0401ec00f403000018
:020000040000fa
:0401f000f403000014
:020000040000fa
:0401f400f403000010
:020000040000fa
:0401f800f40300000c
:020000040000fa
:0401fc00f403000008
:020000040000fa
:04020000f403000003
:020000040000fa
:04020400f4030000ff
:020000040000fa
:04020800f4030000fb
:020000040000fa
:04020c00f4030000f7
:020000040000fa
:04021000f4030000f3
:020000040000fa
:04021400f4030000ef
:020000040000fa
:04021800f4030000eb
:020000040000fa
:04021c00f4030000e7
:020000040000fa
:04022000f4030000e3
:020000040000fa
:04022400f4030000df
:020000040000fa
:04022800f4030000db
:020000040000fa
:04022c00f4030000d7
:020000040000fa
:04023000f4030000d3
:020000040000fa
:04023400f4030000cf
:020000040000fa
:04023800f4030000cb
:020000040000fa
:04023c00f4030000c7
:020000040000fa
:04024000f4030000c3
:020000040000fa
:04024400f4030000bf
:020000040000fa
:04024800f4030000bb
:020000040000fa
:04024c00f4030000b7
:020000040000fa
:04025000f4030000b3
:020000040000fa
:04025400f4030000af
:020000040000fa
:04025800f4030000ab
:020000040000fa
:04025c00f4030000a7
:020000040000fa
:04026000f4030000a3
:020000040000fa
:04026400f40300009f
:020000040000fa
:04026800f40300009b
:020000040000fa
:04026c00f403000097
:020000040000fa
:04027000f403000093
:020000040000fa
:04027400f40300008f
:020000040000fa
:04027800f40300008b
:020000040000fa
:04027c00f403000087
:020000040000fa
:04028000f403000083
:020000040000fa
:10040000af5a21000eff22000e01880000000000fc
:10041000000020000000e000020032000001200087
:100420002002880014000700f10007000000e0002f
:1004300003003a00202f22000100200002003700b4
:100440000000200001002000810f70000100320038
:100450000f000700000020000000e0000200320052
:1004600000000200000000002c110200000000004b
:100470000040da000000fe00406220000000e000c2
:1004800002003200002020009001880000000600d9
:10049000a1028800800478000000eb001f003700f4
:1004a000e284440054a0b4009905ba00e2844400f8
:1004b00054a0b4009906ba00e284440054a0b400e9
:1004c0000006eb00476fde00fd07b200ae018800ba
:1004d000636ce10003003a000ad801000000eb0061
:1004e0000e003700606ce10008003a00004deb00a0
:1004f0000a05e800020039003420ec000af0a000f0
:100500008b05e900f9ff3e00040037006168e10057
:10051000010032000086eb000b00070019c7ba008b
:100520000e04e0001905ba0003003a000a00e000da
:10053000dbff3a0000000600fe07b200ae028800b2
:100540008a047800f5ff37000cd0a300e20f4d00bd
:100550001c00390089027800354dba000a05e80010
:10056000020039003420ec000af0a0008b05e900fd
:100570000f003200254dba000a05e80002003900dc
:100580003420ec000af0a0008b05e90008003200de
:100590000c00e0000600320015cdba000a05e800a4
:1005a000020039003420ec000af0a0008b05e900bd
:1005b0008984e80054a0b4000b00e000e2ff3a0098
:1005c000000006009902ba00055d78008b05e9007d
:1005d000f7ff3200c82ade00055d78008b05e900d0
:1005e000f3ff32000c00e000f1ff320019ddba0029
:1005f000eeff37003600f800c028a9000000eb002d
:100600007e1307003600f80080130700c048a900d9
:1006100010002000791307003600f800c068a90018
:1006200020002000751307003600f800c088a900dc
:1006300030002000711307003600f800c0a8a900a0
:10064000400020006d1307003600f800c608a9001e
:1006500070002000691307003600f800c488a90064
:10066000a000200065130700809fbe000000fa0074
:10067000108080002180800061004000e080480000
:1006800010808800218088003080800041808000b8
:1006900061004000e0804800308088004180880090
:1006a000508080006180800061004000e080480050
:1006b0005080880061808800708080008180800088
:1006c00061004000e08048007080880081808800e0
:1006d00090808000a180800061004000e0804800a0
:1006e00090808800a1808800b0808000c180800058
:1006f00061004000e0804800b0808800c180880030
:10070000d0808000e180800061004000e0804800ef
:10071000d0808800e1808800f08080000181800026
:1007200061004000e0804800f0808800018188007e
:10073000108180002181800061004000e08048003d
:1007400010818800218188003081800041818000f3
:1007500061004000e08048003081880041818800cd
:10076000508180006181800061004000e08048008d
:1007700050818800618188007081800081818000c3
:1007800061004000e080480070818800818188001d
:1007900090818000a181800061004000e0804800dd
:1007a00090818800a1818800b0818000c181800093
:1007b00061004000e0804800b0818800c18188006d
:1007c00042d0bf000004e0000300320042d0bf006e
:1007d0000040e90042f0b70000e8a9000080fa00fc
:1007e0004f00be00004006000040da000000fe009e
:1007f000000005008001780002003700b159780040
:100800000201e9000200e000fcff3a0000000600df
:1008100000017800b1417800035978000304e0003a
:10082000fcff3a000000060080007800010178001b
:100830003104e000fdff3a00000051000000060016
:020000040000fa
:100840000a0d0000202a00002a2a0000204400008f
:10085000454300004f440000452000004155000082
:10086000544f00004d410000544900004f4e00001d
:10087000202a00002a2a000020200000202000005a
:1008800020200000000000000a0d000020200000d1
:100890002020000041750000746f00006c6f0000a4
:1008a000616400006572000020560000657200005f
:1008b0002d3100002e3000003020000020200000ec
:1008c0002020000020200000202000000000000068
:1008d0000a0d0000205000007265000073730000d4
:1008e0002027000045270000206500006e740000ee
:1008f0006572000020270000656d00007074000024
:100900007927000020640000656c00006179000018
:1009100020200000000000000a0d00002050000010
:100920007265000073730000202700004c27000050
:10093000207400006f200000616400006a750000f0
:1009400073740000206c00006f770000206c0000c2
:1009500065760000656c00002020000000000000ab
:100960000a0d000020500000726500007373000043
:100970002027000043270000206600006f7200005f
:10098000206300006f6e000074610000637400005b
:100990002064000065740000616900006c73000051
:1009a00020200000000000000a0d00002050000080
:1009b0007265000073730000202700004d270000bf
:1009c000206600006f720000206400006562000075
:1009d00075670000206d00006f6e000069740000f4
:1009e0006f720000696e00006720000000000000c8
:1009f0000a0d0000205000007265000073730000b3
:100a00002027000054270000206600006f720000bd
:100a1000204900002f4f0000207400006573000083
:100a20007420000020200000202000002020000072
:100a300020200000000000000a0d0000202000001f
:100a400020200000496e0000766100006c69000003
:100a500064200000736500006c6500006374000092
:100a6000696f00006e21000020200000202000009f
:100a700020200000202000002020000000000000b6
:100a80000a0d0000205200004541000044590000ba
:100a90002e20000020200000205400006865000087
:100aa0002073000079730000746500006d20000061
:100ab000776900006c6c000020720000756e000009
:100ac00020770000686500006e200000737400004d
:100ad0006172000074200000697300002070000043
:100ae0007265000073730000656400002020000040
:100af00020200000202000002020000020200000f6
:100b00002020000020200000000000000a0d00004e
:100b1000204d00004f4e0000544900004f5200008d
:100b2000494e0000472e0000202000002020000039
:100b30004d6f00006e690000746f00007269000064
:100b40006e670000207400006865000020670000e8
:100b50006c750000652000006c6500007665000083
:100b60006c2c0000206500006e67000061670000cb
:100b700065200000686f00007374000020270000eb
:100b80006472000079270000206300006f6e00008f
:100b90007461000063740000202000002020000029
:100ba000202000002020000020000000000a00009b
:100bb0000d200000484f000050500000455200003a
:100bc00020460000494c00004c2e00002020000070
:100bd0002044000065740000656300007465000037
:100be00064200000612000006c6f0000772000008e
:100bf000686f0000707000006572000020670000e0
:100c00006c750000652000006c65000076650000d2
:100c10006c2e0000204500006e6700006167000038
:100c20006520000027660000696c00006c2700004a
:100c3000207300006f6c0000656e00006f6900009b
:100c400064200000202000002020000000000000a0
:100c50000a0d000020460000494c00004c20000016
:100c6000535400004f5000002e20000020200000b0
:100c70002020000044690000736500006e670000da
:100c8000616700006520000027660000696c0000b5
:100c90006c270000207300006f6c0000656e000080
:100ca0006f69000064200000202000002020000068
:100cb000000000000a0d00002053000059530000fe
:100cc000544500004d200000484100004c540000f5
:100cd0002e20000020200000446500007465000004
:100ce0006374000065640000207400006865000003
:100cf000206c000069640000206f00007065000037
:100d00006e2e0000204100006c6c0000206f00007f
:100d1000757400007075000074730000206400009a
:100d200069730000656e0000676100006765000080
:100d3000642e0000204300006c6f0000736500000b
:100d4000207400006f200000636f00006e740000cc
:100d5000696e000075650000000000000a0d0000cb
:100d60002053000059530000544500004d2000005e
:100d700045520000524f0000522e0000202000007b
:100d8000486f00007070000065720000206600006f
:100d9000696c00006c200000746900006d65000043
:100da0006f7500007420000066610000696c00002f
:100db00075720000652e0000204300006865000089
:100dc000636b0000206800006f7000007065000019
:100dd0007220000062650000666f0000726500000e
:100de00020700000726f0000636500006564000001
:100df000696e00006720000020000000000a00006b
:100e00000d20000052650000737500006d69000040
:100e10006e6700002e2e00002e2000002020000013
:100e2000204800006f700000706500007220000014
:100e30006c69000064200000636c00006f730000a8
:100e40006564000020200000000000002020000059
:100e50002020000020200000202000002020000092
:100e60002020000020200000202000002e20000074
:100e700043480000454300004b200000484f00005d
:100e80005050000045520000212000002e2000009c
:100e9000466900006c6c0000204900006d6d000088
:100ea000696e0000656e0000742000002e200000b6
:100eb00020460000696c00006c20000041740000b6
:100ec000746500006d700000742000002e2000008a
:100ed0002020000053540000414e0000442d00002b
:100ee0004259000020200000202000002e20000099
:100ef00020460000696c00006c6900006e6700000d
:100f00002020000020200000202000002e200000d3
:100f1000205500006e640000657200002d54000032
:100f2000656d000070200000202000002e200000d1
:100f3000204c000065760000656c0000204c00002d
:100f40006f77000020200000202000002e200000ed
:100f5000204c00006964000020690000732000003c
:100f60006f700000656e0000202000002e20000041
:100f7000202000002043000048450000434b0000b3
:100f80002020000020200000202000002e20000053
:100f900020200000494e000053500000454300004f
:100fa0005420000020200000202000002e200000ff
:100fb0005359000053540000454d000020480000e4
:100fc000414c000054450000442000002e20000049
:100fd0002020000020200000202000002020000011
:100fe0002020000020200000202000002e200000f3
:100ff00020200000202000002020000020200000f1
:101000002020000020200000202000002e2e0000c4
:101010002e2e00002e0000002020000020410000a5
:10102000757400006f2d00006c6f0000616400009b
:101030006572000020200000c02000002020000079
:1010400020200000566500007220000020200000d3
:1010500020200000202000002002000000000000ee
:1010600020200000202000004c6f00006164000080
:10107000696e000067200000202000002020000092
:10108000c0200000202000002020000020200000c0
:101090002020000020200000202000002020000050
:1010a000200200000000000020200000202000009e
:1010b00020440000454300004f440000452000004c
:1010c0002020000020200000c02000002020000080
:1010d00041550000544f00004d41000054490000ac
:1010e0004f4e000020200000200200000000000001
:1010f000383800000d06000001020000000000006a
:10110000383800000c06000001020000000000005a
:10111000383800000e060000010200000000000048
:10112000202000005359000053540000454d00009a
:1011300020520000454100004459000020200000da
:10114000c0200000202000002020000020200000ff
:10115000202000002020000020200000202000008f
:101160002002000000000000202000005374000056
:1011700061720000746900006e67000020200000aa
:101180002020000020200000c020000020200000bf
:10119000202000002020000020200000202000004f
:1011a000202000002020000020020000000000009d
:1011b000202000002053000045540000555000003e
:1011c000204d00004f44000045200000202000007a
:1011d000c03c00002d200000202800002b2900002a
:1011e00020200000282d000029200000202d0000d4
:1011f0003e0200000000000020460000696c000074
:101200006c200000546900006d6500006f750000df
:101210007420000020200000c020000020200000da
:1012200020200000202000002020000020200000be
:10123000202000002020000020020000000000000c
:10124000204c00006f77000020440000657400000f
:1012500065630000742000002020000020200000b2
:10126000c020000020530000656300002020000023
:10127000202000002020000020200000202000006e
:101280002002000000000000205300004554000030
:10129000205000003120000020200000202000000d
:1012a0002020000020200000c02000004c6f000023
:1012b0007720000044650000626e0000632000009b
:1012c00020440000656c00002002000000000000c7
:1012d0002053000045540000205000003220000040
:1012e00020200000202000002020000020200000fe
:1012f000c02000004c69000064200000436c000026
:101300006f7300006520000020440000656c000041
:10131000200200000000000020530000455400009f
:10132000205000003320000020200000202000007a
:101330002020000020200000c02000004472000097
:101340006f700000204100007761000079200000ec
:1013500020440000656c0000200200000000000036
:1013600020530000455400002050000034200000ad
:10137000202000002020000020200000202000006d
:10138000c0200000536c000069640000652000006c
:101390004f700000656e000020440000656c000086
:1013a000200200000000000020530000455400000f
:1013b00020500000352000002020000020200000e8
:1013c0002020000020200000c02000004675000002
:1013d0006c6c000020440000656200006e63000039
:1013e00020440000656c00002002000000000000a6
:1013f000205300004554000020500000362000001b
:1014000020200000202000002020000020200000dc
:10141000c02000004974000073200000426f0000eb
:101420006220000026200000526f00007369000057
:101430006502000000000000000000000002000043
:101440000003000080030000c0030000e003000070
:10145000f0030000f8030000fc030000fe0300009e
:10146000ff0300003031000032330000343500004b
:101470003637000038390000414200004344000084
:081480004546000000000000d9
:020000040000fa
:101488000200fa001e4078000080fa000000060002
:101498000000fa005280800063808000b0da2000eb
:1014a80001002000800f5100818f59005f00360035
:1014b8000a30ef000c30ef001172800000002200ab
:1014c800008060000000e00004003200a3d0bf00ec
:1014d8000074a000a3f0b70003003700a3d0bf003a
:1014e8000074a100a3f0b700117280000000210071
:1014f800008060000000e00004003200a3d0bf00bc
:101508000064a000a3f0b70003003700a3d0bf0019
:101518000064a100a3f0b7001171800000802000d2
:10152800008060000000e00004003200a3d0bf008b
:101538000054a000a3f0b70003003700a3d0bf00f9
:101548000054a100a3f0b700117080000000210032
:10155800008060000000e00004003200a3d0bf005b
:101568000044a000a3f0b70003003700a3d0bf00d9
:101578000044a100a3f0b700117080000080200093
:10158800008060000000e00004003200a3d0bf002b
:101598000034a000a3f0b70003003700a3d0bf00b9
:1015a8000034a100a3f0b70010718000640060004f
:1015b8000000e00004003200a3d0bf000024a00017
:1015c800a3f0b70003003700a3d0bf000024a10098
:1015d800a3f0b70010718000620060000000e00016
:1015e80004003200a3d0bf000014a000a3f0b7008d
:1015f80003003700a3d0bf000014a100a3f0b70078
:1016080010718000610060000000e00004003200fa
:10161800a3d0bf000004a000a3f0b7000300370068
:10162800a3d0bf000004a100a3f0b7000080fa0017
:10163800000006000000fa00bcd0bf000004e00073
:1016480015003a00bad0bf00e24f500012003a002d
:10165800210a210091407800a1d0bf0080cf50001e
:101668000c003200a1d0bf00a2f0b700a2d0bf008a
:101678008000fb00f00f200000806000a070880050
:10168800042ea8000000000000000000042ea9009d
:1016980001003700042ea9000080fa0000000600af
:1016a8000200fa0094d0bf000000fb00e10f5000d8
:1016b8000b003200e20f50001e0032000000e00074
:1016c8004d003a0010c0b30094f0b7009970ef00d5
:1016d8009a70ef009770ef009870ef00460037009f
:1016e80010118000610060000000e0000900320075
:1016f80030118000004f780099d0bf008000fb00b7
:1017080002352100810041009e4878000040e80031
:1017180099f0b70081092100914078009ad0bf0064
:1017280080cf50002d00320020c0b30094f0b700e5
:101738003100370010118000610060000000e000f7
:101748000900320030118000004f780099d0bf00a6
:101758008000fb0002352100810041009e4878008e
:101768000040e80099f0b700111180000020200027
:10177800008060000000e0001a003a0011118000ab
:1017880000102000008060000000e0001700320018
:1017980098d0bf008000fb00022d2100810041008d
:1017a800114f78000040e80098f0b7001e00fb00d9
:1017b8002011880081092100914078009ad0bf004b
:1017c80080cf50000b003a009870ef009a70ef003d
:1017d80010c0b30094f0b700070037000000000005
:1017e800050037000000000003003700000000007b
:1017f80001003700000000000080fa000000060029
:101808000200fa00bcd0bf000004e000b9003a00b2
:10181800bbd0bf000004e000b6003a00bad0bf0059
:10182800e24f5000b3003a009dd0bf000000fb001b
:10183800e10f500028003200e10f500003003c0087
:101848000000e00006003200aa003700e20f500056
:101858002a003200e30f500059003200a50037007b
:1018680092d0bf000000fb00e10f50000e003200d4
:10187800e20f5000100032000000e0009a003a0029
:10188800a0c0b300b80d0700208480008000780055
:1018980020482100dcfb070092d0bf000040e80090
:1018a80092f0b7000b003700803e200001002000b6
:1018b8004c0e0700070037001e30ef002030ef0005
:1018c8009c70ef009b70ef0010c0b3009df0b70054
:1018d8000000000087003700d0a28000610f600080
:1018e8001e0078000000e000810032004f0e070063
:1018f80020c0b300160a07007e00370092d0bf0050
:101908000000fb00e20f500018003200e20f500008
:1019180005003c000000e0000a003200e10f500022
:101928000d00320073003700e40f50001900320038
:10193800e40f500012003500e50f50001a00320085
:101948006c003700a30307001f08070010c0b3008e
:10195800ee040700190037009e0307001a08070065
:1019680010c0b300e904070014003700990307000a
:101978001508070010c0b300e40407000f00370083
:10198800940307001008070010c0b300df04070025
:101998000a0037008f0307000b08070010c0b300c8
:1019a800da040700050037008a0307000608070065
:1019b80010c0b300d5040700000000004d00370038
:1019c80092d0bf000000fb00e30f50002c00320053
:1019d800e30f500007003c00e10f50001c003200ec
:1019e800e10f500020003c000000e0000800320039
:1019f80040003700e50f50002d003200e50f500081
:101a080025003500e60f50002f003200390037005e
:101a1800d082800080007800e04521007afb070032
:101a28003084800042c0b300a1462100600907004d
:101a3800e04521007afb070000407800bcf0b700c1
:101a480092d0bf000040e80092f0b70024003700b1
:101a5800be040700dc070700007c2200910020007c
:101a6800010e07001e00370000050700d607070013
:101a7800007c220091002000fb0d070018003700b1
:101a880042050700d0070700007c220091002000d3
:101a9800f50d07001200370084050700ca07070084
:101aa800007c220091002000ef0d07000c00370099
:101ab800c6050700c4070700007c2200910020002b
:101ac800e90d07000600370008060700be070700f3
:101ad800007c220091002000e30d070000000000b8
:101ae800000000000300370000000000010037007c
:101af800000000000080fa00000006000200fa0062
:101b080095d0bf000000fb00e20f50001a00320021
:101b1800e20f500005003c000000e0009000320099
:101b2800e10f50000600320096003700e30f500026
:101b380077003200e40f50007f0032009100370038
:101b480094d0bf00e14f500087003a0040838000e6
:101b580080007800002d21002bfb0700002d2100bc
:101b68002ffb0700004078009af0b70020c0b300b0
:101b780095f0b70083003700710921009140780083
:101b880099d0bf0080cf50007900320030c0b30038
:101b980095f0b70097d0bf008000fb000235210008
:101ba80081004100114f78000040e80097f0b7002d
:101bb8001e00fb006101b900d0fb2f00f1ff2f00d0
:101bc8000200400083804800a20220000300200099
:101bd800820f5000838f580045003e000006010028
:101be8003400370042003700280037004000370033
:101bf8003f0037003e003700380037003c00370010
:101c08003b003700260037002f0037003800370028
:101c1800370037003600370035003700340037000a
:101c2800330037003200370031003700300037000a
:101c38002f0037002e0037002d0037002c0037000a
:101c48002b0037002a00370029003700280037000a
:101c5800270037002600370025003700240037000a
:101c68001400370022003700080037002000370032
:101c78001f0037001e003700180037001c0037000f
:101c88001b003700060037000f0037005083800024
:101c980080007800002d2100dbfa07001b003700c8
:101ca8006083800080007800002d2100d6fa0700ac
:101cb800160037007083800080007800002d210016
:101cc800d1fa070011003700808380008000780077
:101cd800002d2100ccfa07000c003700908380000b
:101ce80080007800002d2100c7fa070007003700a0
:101cf800a083800080007800002d2100c2fa070030
:101d080040c0b30095f0b700000000001d00370088
:101d180094d0bf00e14f500017003a00002d210079
:101d2800bffa0700004078009af0b70020c0b3005f
:101d380095f0b7001300370094d0bf00e14f500072
:101d48000f003a00002d2100b5fa07000040780086
:101d58009af0b70010c0b30095f0b700090037003b
:101d680000000000070037000000000005003700f1
:101d780000000000030037000000000001003700e9
:101d8800000000000080fa00000006000c00fa00c5
:101d980040079800510798004e019000de0190001e
:101da800028fbe009e009000007122008089b90059
:101db8001e007800e000b900000141009e00780094
:101dc800007122000008b80001014100820078007b
:101dd80020079800310798002007980031079800dd
:101de80012808000238080002e009000be009000aa
:101df800800f5100818f59000200390010c0b300d4
:101e0800010037000040eb000080fa0000000600e7
:101e18000a00fa0030079800410798003e01900038
:101e2800ce019000028fbe00a3d0bf000044b200d4
:101e380040479800ce40900000c4b30080cf5000c7
:101e48000d00320090808000a1808000be0f5000fd
:101e5800ae8f58000a0039001230ef001430ef003e
:101e680050c0b3009ef0b7008040eb00c0c0b30084
:101e78003b080700020037001230ef001430ef0073
:101e88000080fa00000006000200fa00b2d0bf008d
:101e98000000fb00e10f50001a003200e10f500073
:101ea80003003c000000e00006003200e3003700b9
:101eb800e20f50001f003200e30f50002c003200e8
:101ec800de00370094d0bf00e14f5000d4003a0044
:101ed8009dd0bf00e14f5000d3003a00a4d0bf000e
:101ee800e14f5000d2003a000230ef000430ef001a
:101ef800a370ef00a170ef0010c0b300b2f0b700fc
:101f0800ce0037001280800023808000f07022000d
:101f180001002000800f5100818f5900c600360053
:101f280020c0b300b2f0b70010002000d0a2880093
:101f3800c20037000230ef000430ef001230ef002b
:101f48001430ef003230ef003430ef003630ef005d
:101f58003830ef009e70ef0030c0b300b2f0b70029
:101f68008040eb00c0c0b300fd070700b300370096
:101f78009ed0bf000000fb00e20f50003f0032007f
:101f8800e20f500005003c000000e0000a003200ab
:101f9800e10f50001a003200a8003700e40f50008b
:101fa80077003200e40f500063003500e50f500061
:101fb80084003200a100370040848000cf80de001a
:101fc80072ff0700004f78001e4078000004e00010
:101fd800070032000230ef000430ef003230ef002b
:101fe8003430ef00b830ef0010c0b3009ef0b700f7
:101ff800007122000100200085ff070086003700dd
:10200800310a21009140780000c8b30000c0600088
:10201800104798001e4090000004e00003003200c2
:102028000230ef000430ef001000370030848000e9
:10203800cf80de0055ff0700004f78001e40780073
:102048000004e000090032000230ef000430ef0025
:102058003230ef003430ef0020c0b3009ef0b700fc
:1020680011c0b30080c0b300bd0707000071220093
:102078000100200066ff070067003700310a2100d1
:102088009140780000c8b30000c060001047980075
:102098001e4090000004e000100032003230ef00d3
:1020a8003430ef0080848000cf80de0037ff0700e7
:1020b800004f78001e4078000004e0001a0032004b
:1020c8000230ef000430ef009e70ef008040eb001c
:1020d80080c0b300a2070700130037000230ef00ea
:1020e8000430ef0092818000a3818000f0c32900b2
:1020f80001002000800f5100818f59000a0036002e
:102108000230ef000430ef00c08580000000e800d6
:10211800c085880030c0b3009ef0b70011c0b3007e
:1021280040c0b3008e0707000071220001002000a4
:1021380037ff07003800370080848000cf80de003a
:1021480012ff0700004f78001e4078000004e000ee
:10215800070032000230ef000430ef0040c0b30047
:102168009ef0b7008040eb0040c0b3007c0707003a
:10217800007122000100200025ff0700260037001b
:1021880060848000cf80de0000ff0700004f7800e9
:102198001e4078000004e000060032000230ef0024
:1021a8000430ef003230ef003430ef0020c0b300cd
:1021b8009ef0b700007122000100200014ff070004
:1021c80015003700a3d0bf000044b20010479800a4
:1021d8001e4090000004e0000b0032006084800084
:1021e800cf80de00e9fe0700004f78001e4078002f
:1021f8000004e000070032000230ef000430ef0076
:102208009e70ef00040037000230ef000430ef004a
:102218000100370000000000000000000700370040
:102228000000000005003700000000000300370030
:102238000000000001003700000000000080fa00e4
:10224800000006000000fa000080fa000000060006
:102258000000fa004a0c0700b270ef008cfc07007f
:1022680026fe070008ff070065fd0700690907004b
:10227800df01070064040700eefc0700f1ff070018
:1022880007fd07003f0b0700f4ff37000000fa00c6
:10229800b1092100914078000100fb008140e8006d
:1022a80081417800b20921000349780081022000a9
:1022b800810f50003300320081022000810f50004e
:1022c80007003c00f40f50001f003200fe0f5000c2
:1022d80026003200e50f5000120032004c00370093
:1022e80021032000810f5000350032002103200017
:1022f800810f500004003c00d1022000810f5000e3
:10230800290032004200370071032000810f50007d
:102318003100320061042000810f50003400320087
:102328003b0037004082800080007800e0452100b3
:1023380035f90700e045210039f907000040780029
:10234800bcf0b7003200370020828000800078009f
:10235800e04521002cf90700e045210030f907008d
:1023680000407800bcf0b700290037008047210002
:1023780011c4b3000148780010c2b300bcf0b70024
:10238800230037009082800080007800e04521001b
:102398001df90700e045210021f9070000407800f9
:1023a800bcf0b7001a00370080462100e1c2b30034
:1023b8000148780010c2b300bcf0b7001400370021
:1023c80090462100e1c2b3000148780010c2b30072
:1023d800bcf0b7000e003700a0462100e1c2b300f0
:1023e8000148780010c2b300bcf0b70008003700fd
:1023f800350ea900254ea900258ea90025eea900b5
:1024080092d0bf000040e80092f0b7000000000042
:102418000080fa00000006000200fa009ed0bf000b
:10242800e14f500014003a00f280800003818000e0
:102438008038210001002000800f5100818f590051
:102448000d003a00a3d0bf0001c2b300014f6000e5
:1024580000c2b3009e40780080cf500006003200d2
:10246800214e2100f046210002012000dff807007c
:1024780010c2b300bcf0b7009ed0bf00e14f5000bf
:102488000f003a00f280800003818000701a260055
:1024980001002000800f5100818f5900080036008c
:1024a800f04621000201200021482100cff8070052
:1024b80010c2b300bcf0b7001e30ef002030ef00b0
:1024c8000080fa00000006000800fa0020079800c3
:1024d800310798002e019000be019000028fbe00c7
:1024e800f080800001818000be0f5000ae8f580040
:1024f800260039001e30ef002030ef00b10921001e
:10250800914078000100fb008140e800014178001b
:10251800b309210082497800e70f5000100032000b
:10252800ea0f5000150032000000e00016003a00e3
:10253800204c21000201200080007800e0452100a5
:10254800aaf80700214a2100f046210002012000d4
:10255800a6f8070010c2b300bcf0b7000b003700a4
:10256800f046210002012000214821009ff80700c1
:1025780010c2b300bcf0b700040037009b70ef0036
:102588000000000001003700000000000080fa0091
:10259800000006000800fa0020079800310798009c
:1025a8002e019000be019000028fbe00f0808000d6
:1025b80001818000be0f5000ae8f580050003900d6
:1025c8001e30ef002030ef00b10921009140780063
:1025d8000100fb008140e80001417800b3092100b7
:1025e80082497800ec0f500028003200ec0f5000b0
:1025f80007003c00e40f500018003200e80f5000bc
:102608001c0032000000e000080032003c003700e7
:10261800f40f50002f003200f80f5000360032003f
:10262800f00f50002200320035003700204c210006
:102638000201200080007800e04521006bf80700c7
:10264800214d2100f04621000201200067f8070013
:1026580010c2b300bcf0b70029003700a047210022
:10266800e1c3b3000148780010c2b300bcf0b70062
:1026780023003700b0472100e1c3b30001487800c8
:1026880010c2b300bcf0b7001d003700a0472100fe
:1026980001c2b30001487800c0472100e1c3b3007c
:1026a8000148780010c2b300bcf0b700140037002e
:1026b800b047210001c2b30001487800d04721008b
:1026c800e1c3b3000148780010c2b300bcf0b70002
:1026d8000b003700c047210001c2b3000148780051
:1026e800e0472100e1c3b3000148780010c2b300fd
:1026f800bcf0b700020037009b70ef00000000003c
:102708000080fa00000006000800fa002007980080
:10271800310798002e019000be019000028fbe0084
:10272800f080800001818000be0f5000ae8f5800fd
:10273800260039001e30ef002030ef00b1092100db
:10274800914078000100fb008140e80001417800d9
:10275800b309210082497800f40f500010003200bc
:10276800f90f5000150032000000e00016003a0092
:10277800205321000201200080007800e04521005c
:102788001af8070021502100f0462100020120001c
:1027980016f8070010c2b300bcf0b7000b003700f2
:1027a800f046210002012000214821000ff807000f
:1027b80010c2b300bcf0b700040037009b70ef00f4
:1027c8000000000001003700000000000080fa004f
:1027d800000006000000fa009ed0bf000000fb00c9
:1027e800e20f500038003200e20f500005003c00b4
:1027f8000000e0000a003200e10f50001b00320028
:1028080079003700e40f50004b003200e40f50000d
:102818003b003500e50f50006100320072003700c0
:10282800e109210091407800bdd0bf0080cf500061
:102838006a0032001e30ef002030ef009b70ef007e
:102848009ed0bf00bdf0b700808280008000780075
:10285800e0452100ecf70700e0452100f0f707000c
:1028680000407800bcf0b7005f003700e1092100a4
:1028780091407800bdd0bf0080cf500010003200da
:102888001e30ef002030ef009b70ef009ed0bf009d
:10289800bdf0b700204c2100020120008000780024
:1028a800e0452100d1f70700f04621000201200091
:1028b80021482100cdf7070010c2b300bcf0b700d3
:1028c800d5fe070048003700e10921009140780053
:1028d800bdd0bf0080cf5000050032001e30ef0091
:1028e8002030ef009b70ef009ed0bf00bdf0b70016
:1028f800803e200001002000f3fe07003a00370068
:10290800e109210091407800bdd0bf0080cf500080
:10291800050032001e30ef002030ef009b70ef0002
:102928009ed0bf00bdf0b700803e2000010020000f
:1029380018ff07002c003700e109210091407800ba
:10294800bdd0bf0080cf5000260032001e30ef00ff
:102958002030ef009b70ef009ed0bf00bdf0b700a5
:10296800204b21000201200080007800e045210072
:102978009ef70700f04621000201200021482100af
:102988009af70700c085800052c0b3005147210064
:102998008705070010c2b300bcf0b700120037006b
:1029a800e109210091407800bdd0bf0080cf5000e0
:1029b800050032001e30ef002030ef009b70ef0062
:1029c8009ed0bf00bdf0b700803e2000010020006f
:1029d8004dff070000000000030037000000000062
:1029e80001003700000000000080fa000000060027
:1029f8000200fa00bad0bf000000fb00e20f50004e
:102a080053003200e20f500005003c000000e000d7
:102a180008003200e10f50001f003200a400370008
:102a2800e30f500052003200e40f500092003200d1
:102a38009f003700d2808000e3808000f070220081
:102a480001002000800f5100818f5900910036004d
:102a5800bb70ef00bc70ef006082800080007800df
:102a6800e045210068f70700e04521006cf7070002
:102a780000407800bcf0b70010c0b300baf0b7004f
:102a8800050ea900048ea9004270ef001a30ef006d
:102a98001c30ef0086003700d2808000e380800081
:102aa800b003200001002000800f5100818f5900e1
:102ab800220036001a30ef001c30ef00bbd0bf00f8
:102ac8000000fb00e145210000804000104f780025
:102ad8009e00fb00f00f200000806000a0708800be
:102ae800e0c1b30042f0b700b10b2100914078007b
:102af8008101fb00bcd0bf000000fb000001e80022
:102b080010c0b300828f510001003d000040eb006f
:102b18008140e80081417800b20b21000349780028
:102b28000004e00004003200bc70ef00bb70ef004e
:102b380020c0b300baf0b700050ea80042d0bf000d
:102b48000004e00055003a00050ea90058003700bf
:102b5800bcd0bf000004e000520034001a30ef007f
:102b68001c30ef0030c0b300baf0b7005000370097
:102b7800bbd0bf000000fb0011022000810f5000f5
:102b88001500320021022000810f5000220032007f
:102b9800f00f500025003a00bbd0bf000040e8000d
:102ba800bbf0b700048ea90000ccb300004f78003a
:102bb8009e00fb00f00f200000806000a0708800dd
:102bc800050ea80040c0b300baf0b70090c1b3002a
:102bd80042f0b70027003700bbd0bf000040e80034
:102be800bbf0b700048ea90020c0b300004f7800e6
:102bf8009e00fb00f00f200000806000a07088009d
:102c0800050ea80040c0b300baf0b70090c1b300e9
:102c180042f0b70017003700bc70ef00bb70ef0040
:102c280020c0b300baf0b70012003700048ea80025
:102c3800bbd0bf008000fb00e245210081004100bd
:102c4800114f78000040e800bbf0b7009e00fb0081
:102c5800f00f200000806000a0708800050ea8001a
:102c680040c0b300baf0b70010c0b30042f0b700dc
:102c7800000000000e00370042d0bf000004e00052
:102c88000a003a00050ea90030c0b300baf0b70038
:102c980007003700000000000500370000000000b2
:102ca80003003700000000000100370000000000aa
:102cb8000080fa00000006000000fa00bfd0bf0044
:102cc8000004e00002003400bfd0bf00010037005c
:102cd8000040eb000080fa00000006000200fa0045
:102ce800bfd0bf000004e00006003400f10b210053
:102cf80091407800014f7800bf70ef001e407800c7
:102d0800000037000080fa00000006000400fa0006
:102d180020479800ae409000014f7800efff070071
:102d2800104798001e4090009e4f500005003a0042
:102d38001630ef001830ef0030c0b300040507006c
:102d4800000000000080fa00000006000200fa00ff
:102d5800e2ff0700004f78001e4078000004e00002
:102d6800400034001e00fb00e20f50000d0032004e
:102d7800e20f500003003c00e10f50000600320053
:102d880038003700e40f500016003200e80f5000fa
:102d9800240032003300370020c0b300ec040700e1
:102da80030003700308480000000e800308488005c
:102db800d082800080007800e045210092f607006c
:102dc8003084800042c0b300a14621007804070087
:102dd800e045210092f6070000407800bcf0b700fb
:102de80020003700308480000000e900308488002b
:102df800d082800080007800e045210082f607003c
:102e08003084800042c0b300a14621006804070056
:102e1800e045210082f6070000407800bcf0b700ca
:102e28001000370092d0bf000040e80092f0b700d1
:102e3800e082800080007800e045210072f60700fb
:102e48004084800042c0b300a14621005804070016
:102e5800e045210072f6070000407800bcf0b7009a
:102e6800000000000080fa00000006000200fa00de
:102e78009aff0700004f78001e4078000004e00029
:102e8800400034001e00fb00e20f50000d0032002d
:102e9800e20f500003003c00e10f50000600320032
:102ea80038003700e40f500016003200e80f5000d9
:102eb800240032003300370020c0b300a404070008
:102ec80030003700408480000000e800408488001b
:102ed800e082800080007800e04521004af6070083
:102ee8004084800042c0b300a1462100300407009e
:102ef800e04521004af6070000407800bcf0b70022
:102f080020003700408480000000e90040848800e9
:102f1800e082800080007800e04521003af6070052
:102f28004084800042c0b300a1462100200407006d
:102f3800e04521003af6070000407800bcf0b700f1
:102f48001000370092d0bf000040e80092f0b700b0
:102f5800f082800080007800e04521002af6070012
:102f68005084800042c0b300a1462100100407002d
:102f7800e04521002af6070000407800bcf0b700c1
:102f8800000000000080fa00000006000200fa00bd
:102f980052ff0700004f78001e4078000004e00050
:102fa800400034001e00fb00e20f50000d0032000c
:102fb800e20f500003003c00e10f50000600320011
:102fc80038003700e40f500016003200e80f5000b8
:102fd800240032003300370020c0b3005c0407002f
:102fe80030003700508480000000e80050848800da
:102ff800f082800080007800e045210002f607009a
:103008005084800042c0b300a1462100e8030700b5
:10301800e045210002f6070000407800bcf0b70048
:1030280020003700508480000000e90050848800a8
:10303800f082800080007800e0452100f2f507006a
:103048005084800042c0b300a1462100d803070085
:10305800e0452100f2f5070000407800bcf0b70019
:103068001000370092d0bf000040e80092f0b7008f
:103078000083800080007800e0452100e2f5070029
:103088006084800042c0b300a1462100c803070045
:10309800e0452100e2f5070000407800bcf0b700e9
:1030a800000000000080fa00000006000200fa009c
:1030b8000aff0700004f78001e4078000004e00077
:1030c800400034001e00fb00e20f50000d003200eb
:1030d800e20f500003003c00e10f500006003200f0
:1030e80038003700e40f500016003200e80f500097
:1030f800240032003300370020c0b3001404070056
:1031080030003700608480000000e8006084880098
:103118000083800080007800e0452100baf50700b0
:103128006084800042c0b300a1462100a0030700cc
:10313800e0452100baf5070000407800bcf0b70070
:1031480020003700608480000000e9006084880067
:103158000083800080007800e0452100aaf5070080
:103168006084800042c0b300a1462100900307009c
:10317800e0452100aaf5070000407800bcf0b70040
:103188001000370092d0bf000040e80092f0b7006e
:103198001083800080007800e04521009af5070040
:1031a8007084800042c0b300a1462100800307005c
:1031b800e04521009af5070000407800bcf0b70010
:1031c800000000000080fa00000006000200fa007b
:1031d800c2fe0700004f78001e4078000004e0009f
:1031e800400034001e00fb00e20f50000d003200ca
:1031f800e20f500003003c00e10f500006003200cf
:1032080038003700e40f500016003200e80f500075
:10321800240032003300370020c0b300cc0307007d
:1032280030003700708480000000e8007084880057
:103238001083800080007800e045210072f50700c7
:103248007084800042c0b300a146210058030700e3
:10325800e045210072f5070000407800bcf0b70097
:1032680020003700708480000000e9007084880026
:103278001083800080007800e045210062f5070097
:103288007084800042c0b300a146210048030700b3
:10329800e045210062f5070000407800bcf0b70067
:1032a8001000370092d0bf000040e80092f0b7004d
:1032b8002083800080007800e045210052f5070057
:1032c8008084800042c0b300a14621003803070073
:1032d800e045210052f5070000407800bcf0b70037
:1032e800000000000080fa00000006000200fa005a
:1032f8007afe0700004f78001e4078000004e000c6
:103308003f0034001e00fb00e20f50000d003200a9
:10331800e20f500003003c00e10f500006003200ad
:1033280037003700e40f500016003200e80f500055
:10333800240032003200370020c0b30084030700a5
:103348002f003700808480000000e8008084880017
:103358002083800080007800e04521002af50700de
:103368008084800042c0b300a146210010030700fa
:10337800e04521002af5070000407800bcf0b700be
:103388001f003700808480000000e90080848800e6
:103398002083800080007800e04521001af50700ae
:1033a8008084800042c0b300a146210000030700ca
:1033b800e04521001af5070000407800bcf0b7008e
:1033c8000f00370010c0b30092f0b700d082800021
:1033d80080007800e04521000bf50700308480006c
:1033e80042c0b300a1462100f1020700e0452100d8
:1033f8000bf5070000407800bcf0b70000000000a3
:103408000080fa00000006000000fa00c0d0bf00eb
:103418000000fb00e10f50000b003200e20f5000eb
:10342800590032000000e0007b003a002e30ef0027
:103438003030ef00be70ef00bf70ef0010c0b30077
:10344800c0f0b7007400370011718000000220003e
:10345800008060000000e0000d003a00107180005c
:10346800700060000000e00009003a001071800060
:10347800680060000000e00005003a00117080005c
:1034880000202000008060000000e0003b003200c7
:103498007281800083818000f004200001002000f8
:1034a800800f5100818f590032003600a0c0b30050
:1034b800ad06070020c0b300c0f0b700117180004e
:1034c80000022000008060000000e00004003200dc
:1034d800bed0bf000004a000bef0b7000300370054
:1034e800bed0bf000004a100bef0b700107180007c
:1034f800700060000000e00004003200bed0bf0091
:103508000014a000bef0b70003003700bed0bf0013
:103518000014a100bef0b7001071800068006000c0
:103528000000e00004003200bed0bf000024a0006c
:10353800bef0b70003003700bed0bf000024a100d2
:10354800bef0b700117080000020200000806000ed
:103558000000e00004003200bed0bf000034a0002c
:10356800bef0b70003003700bed0bf000034a10092
:10357800bef0b70000000000270037002e30ef0033
:103588003030ef0024003700117180000002200065
:10359800008060000000e00013003a001071800015
:1035a800700060000000e0000f003a001071800019
:1035b800680060000000e0000b003a001170800015
:1035c80000202000008060000000e00006003a00b3
:1035d8002e30ef003030ef00bed0bf00bff0b70094
:1035e80010c0b300c0f0b7007281800083818000f2
:1035f800f0a52e0001002000800f5100818f590096
:1036080004003600bfd0bf000044a000bff0b700e0
:1036180001003700000000000080fa0000000600ea
:103628000800fa0020079800310798002e01900042
:10363800be019000028fbe00308180004181800071
:10364800be0f5000ae8f58001f0039002630ef0023
:103658002830ef00c1092100914078000100fb00eb
:103668008140e80001417800c309210082497800bf
:10367800f40f50000c00320081022000810f50002e
:103688000d0032000000e0000e003a008040eb0020
:1036980020c0b3003202070011c0b30010c0b3004d
:1036a8002f020700080037008040eb0010c0b3006d
:1036b8002b020700040037009c70ef000000000098
:1036c80001003700000000000080fa00000006003a
:1036d8000800fa0020079800310798002e01900092
:1036e800be019000028fbe003081800041818000c1
:1036f800be0f5000ae8f58001b0039002630ef0077
:103708002830ef00c1092100914078000100fb003a
:103718008140e80001417800c3092100824978000e
:10372800e50f500008003200ea0f50000a0032008e
:103738000000e0000b003a0011c0b30010c0b30055
:1037480007020700080037008040eb0010c0b300f4
:1037580003020700040037009c70ef00000000001f
:1037680001003700000000000080fa000000060099
:103778000800fa0020079800310798002e019000f1
:10378800be019000028fbe00308180004181800020
:10379800be0f5000ae8f5800890039002630ef0068
:1037a8002830ef009cd0bf008000fb000040e800fc
:1037b8009cf0b7006108b900020520000300200052
:1037c800820f5000838f58007a003e0000060100e7
:1037d800500037007900370078003700770037004d
:1037e8007600370075003700740037004d00370049
:1037f80072003700710037004e0037006f00370045
:103808006e0037006d0037006c0037006b00370022
:103818006a00370069003700680037006700370022
:103828006600370065003700640037006300370022
:103838006200370061003700600037005f00370022
:103848005e0037005d0037005c0037005b00370022
:103858005a00370059003700580037005700370022
:103868005600370055003700540037005300370022
:103878005200370051003700500037004f00370022
:103888004e0037002d0037004c0037004b00370042
:103898004a003700490037002c003700470037003e
:1038a8004600370045003700440037002b0037003a
:1038b8004200370041003700400037003f00370022
:1038c8002a0037003d0037003c0037003b00370036
:1038d8003a00370029003700380037003700370032
:1038e800360037003500370028003700330037002e
:1038f800320037003100370030003700270037002a
:103908002e0037002d0037002c0037002b00370021
:103918002600370011c0b30020c0b3009001070093
:10392800270037008040eb0020c0b3008c0107005f
:10393800230037009c70ef00210037008040eb0027
:1039480020c0b300860107001d00370011c0b30076
:1039580020c0b30082010700190037008040eb0047
:1039680020c0b3007e0107001500370011c0b30066
:1039780020c0b3007a010700110037008040eb0037
:1039880020c0b300760107000d00370011c0b30056
:1039980020c0b30072010700090037008040eb0027
:1039a80020c0b3006e010700050037009c70ef00cf
:1039b800030037000000000001003700000000008d
:1039c8000080fa00000006000000fa009ed0bf0048
:1039d8000000fb00e20f500030003200e20f500000
:1039e80005003c000000e0000a003200e10f500032
:1039f8001900320071003700e40f5000490032000e
:103a0800e40f500036003500e50f50005600320034
:103a18006a003700e109210091407800d0d0bf004a
:103a280080cf5000620032002630ef002830ef00cf
:103a38009c70ef009ed0bf00d0f0b7008040eb0034
:103a480020c0b3004601070011c0b30010c0b30086
:103a58004301070059003700e1092100914078002f
:103a6800d0d0bf0080cf5000530032002630ef0086
:103a78002830ef009c70ef009ed0bf00d0f0b70058
:103a88008040eb0020c0b3003501070011c0b3002f
:103a980010c0b3003201070048003700e1092100d7
:103aa80091407800d0d0bf0080cf5000080032008d
:103ab8002630ef002830ef009c70ef009ed0bf004a
:103ac800d0f0b7008040eb0020c0b300240107000d
:103ad800803e200001002000d1fe0700370037009b
:103ae800e109210091407800d0d0bf0080cf50007c
:103af800080032002630ef002830ef009c70ef00fd
:103b08009ed0bf00d0f0b7008040eb0020c0b300cb
:103b180013010700803e200001002000ecfe070092
:103b280026003700e109210091407800d0d0bf007d
:103b380080cf5000080032002630ef002830ef0018
:103b48009c70ef009ed0bf00d0f0b7008040eb0023
:103b580020c0b30002010700803e200001002000c1
:103b6800dbfe070015003700e109210091407800cd
:103b7800d0d0bf0080cf5000080032002630ef00c0
:103b88002830ef009c70ef009ed0bf00d0f0b70047
:103b98008040eb0010c0b300f1000700803e200019
:103ba80001002000f2fe07000000000003003700bb
:103bb8000000000001003700000000000080fa004b
:103bc800000006000000fa00c109210091407800b9
:103bd8000100fb008140e80081417800c209210012
:103be80003497800e40f50000b003200e80f500042
:103bf800100032000000e00011003a0011c0b300cc
:103c080020c0b300d60007008040eb0010c0b3000e
:103c1800d30007000b0037008040eb0020c0b30042
:103c2800cf00070011c0b30010c0b300cc000700dc
:103c3800040037009c70ef0000000000010037000e
:0c3c4800000000000080fa0000000600f0
:020000040000fa
:103c54000000fe00025a21000019780001097800d2
:103c6400000006000000fe00025a2100001978003e
:103c740001097800000006000000fe000000eb00cf
:103c84008000eb00f3ff07002e27ef000000060082
:103c94000000fe000000eb008000eb00edff0700d9
:103ca4002e27ef00000006000000fe000000fe00ca
:103cb400801f7800811f7800015a21000600fc0053
:103cc400310078007039880011007800703988005c
:103cd40029e7a8000000000000000000cf007800e1
:103ce4004f007800000006000000fe00a2028000e1
:103cf400a10288009080ba001000ba00a2028800d5
:103d0400000006000000fe00a2028000a10288005c
:103d14009080ba001000ba00a202880000000600d9
:103d24000000fe00a2028000a10288001000ba0078
:103d3400a2028800000006000000fe00a20280002b
:103d4400a10288001000ba00a20288000000060048
:103d54000000fe0029e7af00feff3700f27f2000dd
:103d6400000161001a003a0005402000a202800010
:103d7400a10288009001ba003082ba008341620037
:103d84008301e80004003a008502e900f9ff3a00e3
:103d9400a20288000c003700a20288000000e9009b
:103da40005802f0000806200320024004239880020
:103db40050398800613988005a1e02000000000052
:103dc40029e7af00feff37001000200029a7af004d
:103dd40000002000000006000000fe0029e7af00fc
:103de400feff3700f27f2000000161001a003a0054
:103df40005402000a2028000a10288009001ba00c0
:103e04003082ba00834162008301e80004003a0072
:103e14008502e900f9ff3a00a20288000c0037008d
:103e2400a20288000000e90005802f0000806200e3
:103e340032002400423988005039880061398800f2
:103e44005a1e02000000000029e7af00feff370001
:103e54001000200029a7af00000020000000060089
:103e64000000fe0029e7af00feff37000000a700b6
:103e7400150037000010a7001300370061398800cf
:103e8400503988001000240040398800a0028000c6
:103e9400a10f2000a1028800010020008208bb00bd
:103ea4008398bb008408bb008598bb005a1e02009f
:103eb4000000000029e7af00feff3700a0028800e1
:103ec4001000200029a7af00000020000000060019
:103ed4000000fe0029e7af00feff37000000a70046
:103ee400160037000010a70014003700613988005d
:103ef40050398800a1028000100024004039880055
:103f0400a00f2000a0028800000020000208bb00cf
:103f1400f20f20000298bb000308bb000298bb000c
:103f24005a1e02000000000029e7af00feff370020
:103f3400a10288001000200029a7af000000200083
:103f440000000600f27f200000006100000006006f
:103f540002802f0000006100f2ff2f008100610049
:043f64000000060053
:020000040000fa
:103f68000400fa002047980031479800ae409000be
:103f7800014f7800be409000114798001e40900005
:103f88000004e00004003400a1d0bf001e4070000f
:103f9800a1f0b700040037009ec0ea00a1d0bf001e
:103fa80000c06000a1f0b7000080fa000000060021
:103fb8001200fa00600798007107980002579800ed
:103fc8000e509000e54f50005e003c006e009000df
:103fd800c400de00703420000008b8004308de008a
:103fe80000407800204798002e4090008000fb0099
:103ff800007122008088b900ee0090000080500017
:10400800600798006e009000c300de00500c22008c
:104018000008b8004408de000040780030479800e7
:104028003e4090008000fb00803e20008088b90060
:10403800ee00900000805000600798006e0090002d
:10404800c200de00b04721000008b8000100d1001e
:1040580000407800404798004e4090008000fb00e8
:10406800400620008088b900ee00900000805000d3
:1040780060079800ee009000d0cc2c000008b80033
:104088004308de0000407800504798005e409000ea
:104098000000fb00ea00b900ee009000008050002c
:1040a800600798006e009000004078006047980014
:1040b8000000eb00000f78000000eb00000f780014
:1040c8000a003700618680001e80e8006e40780094
:1040d8000000fb0000804000904078001e0178003e
:1040e80067004100017778001e0fe8001e00780085
:1040f800e40f5000f3ff34000000eb00000f7800dd
:104108000b0037001e007800fe0090000080400081
:104118008e5090008100fb00e58010009e804000da
:10412800e7804000eec07800014878001e0fe800e4
:104138000e5090000000fb009e0f5000f1ff3c0065
:1041480001003700000000000080fa0000000600af
:104158000400fa00204798001e30ef002030ef00de
:104168002630ef002830ef00ae409000014f780075
:104178009e407800d2092100014978009270ef0032
:104188009c70ef009b70ef000080fa0000000600b2
:104198000000fa00003a80000080fa0000000600e3
:1041a8000200fa00faff0700000f78001e007800ee
:1041b800240007000004e00002003200000028008c
:1041c800710007001e0078002a0007000004e000c4
:1041d80002003200000024006b0007001e00780077
:1041e800320007000004e000020032000020200036
:1041f800650007001e0078003a0007000004e00090
:1042080002003200000820005f0007001e0078004e
:10421800420007000004e000020032000004200011
:10422800590007001e0078004a0007000004e0005b
:104238000200320000012000530007000080fa004d
:10424800000006000400fa00100798000040eb0088
:10425800004f78001e0090000000e00002003d00c2
:1042680010c0b300004f78001e4078000080fa00ac
:10427800000006000400fa00100798000040eb0058
:10428800004f78009e00900000002400008060002d
:104298000000e0000200320010c0b300004f7800b8
:1042a8001e4078000080fa00000006000400fa00b2
:1042b800100798000040eb00004f78009e00900027
:1042c80000202000008060000000e00002003200b2
:1042d80010c0b300004f78001e4078000080fa003c
:1042e800000006000400fa00100798000040eb00e8
:1042f800004f78009e0090000008200000806000b9
:104308000000e0000200320010c0b300004f780047
:104318001e4078000080fa00000006000400fa0041
:10432800100798000040eb00004f78009e009000b6
:1043380000042000008060000000e000020032005d
:1043480010c0b300004f78001e4078000080fa00cb
:10435800000006000400fa00100798000040eb0077
:10436800004f78001e009000700060000000e00020
:104378000200320010c0b300004f78001e407800e1
:104388000080fa00000006000200fa00000f780022
:104398009e80ea00003a800000806000003a8800b1
:1043a8000080fa00000006000000fa004027ef0035
:1043b8000080fa00000006001a00fa0020a222007d
:1043c800011020000001be00f0ff2f00f10f2000b7
:1043d800020278008301780000017800010078006b
:1043e80002016200008061008000eb00c000dd0077
:1043f80000002000008fbe006110b8001e1f700072
:104408001e9770001e0078009e009000cffe0700e7
:104418000001be00008020000100200002004000d2
:104428008380480020079800310798005005200035
:10443800a10a200006fe07002e009000be00900092
:1044480065fe07000080fb0040079800302322002b
:104458001101200050079800610798006056250058
:104468004104200070079800010f98007e01900019
:104478008e0990005e009000ee0090000202be00df
:104488000001be002e009000be00900074fe0700e0
:104498000080fb00400798002e009000be009000ae
:1044a80064004000e0804800200798003107980029
:1044b800908928007107200050079800610798002c
:1044c800c0bc2b00a10a200070079800010f9800bb
:1044d8007e0190008e0990005e009000ee00900032
:1044e8000202be000001be002e009000be00900037
:1044f8005bfe07000080fb00400798002e0090003c
:10450800be009000f8fd0700100f9800210f9800da
:104518002e009000be00900062004000e08048003d
:10452800f1fd0700300f9800410f98001e00780039
:104538009e00900085fe07000001be00008020005c
:1045480001002000020040008380480020079800f6
:10455800310798002e009000be0090001efe070054
:104568000080fb00400798002e009000be009000dd
:10457800ddfd0700100f9800210f98002e00900015
:10458800be00900062004000e0804800d6fd0700b1
:10459800300f9800410f98005e019000ee019000e6
:1045a8001e089000ae089000800f5100818f5900be
:1045b80007003a007e0190008e0990003e089000a6
:1045c800ce089000800f5100818f59000100320001
:0c45d800ffff37000080fa000000060022
:020000040000fa
:1045e400a01500000400000082000000ffffff008f
:1045f400ff0000006815000020000000800000009b
:10460400c61000000200000082000000ffff00004e
:10461400a41500000200000080000000001000004b
:104624004400000080000000a61500000200000005
:1046340080000000c810000002000000800000009c
:10464400a81500000200000080000000ca1000004d
:104654000200000080000000d01200008e01000063
:1046640080000000b210000006000000800000007e
:104674006610000020000000820000002084440036
:10468400846884008c84b00084d48400f8841c0082
:10469400854085008685d700852886005a86ae0029
:1046a40086ff860026870000861000001e0000009a
:1046b40080000000cc100000020000008200000016
:1046c400328a0000be1000000400000080000000d8
:1046d400c2100000040000008000000088150000e3
:1046e4001800000082000000bf00bf0000aa000004
:1046f400bf008f0000970000102740001fe02e002d
:104704001027100027409c00d2100000fe0100007a
:1047140080000000a41000000e00000080000000d3
:104724005e1400000a010000800000004410000034
:1047340022000000820000000c88300088548800a9
:1047440078888000888888009088b40088d8880099
:10475400fc8820008944890068898c0089b089001c
:10476400d489f80089000000b81000000600000099
:1047740080000000ce100000020000008000000055
:10478400d0100000020000008000000000000000c3
:020000040000fa
:104794000400fa00100798009e009000010f7800b2
:1047a4000140800000102000008060000000e00054
:1047b400170032000108a9006185800010c0b30011
:1047c4009e8f5000010031000040eb008100e800a2
:1047d400618588000004e0000d003200ac30ef0079
:1047e400a07080004800de006140600000c0ea0064
:1047f400614060000080fb00610060004800dd0053
:10480400a17080000180a10001007000a0708800e8
:104814000080fa00000006000000fa00a4d0bf00e7
:104824000000fb00e10f500035003200e10f5000a2
:1048340003003c000000e0000600320035003700b1
:10484400e20f50000a003200e30f50000a00320069
:10485400300037002a30ef002c30ef00b030ef008a
:10486400150ea90010c0b300a4f0b700290037004a
:10487400150ea900270037008085800080004000c5
:10488400805821000080400010007800c0ff07001d
:104894008085800080004000405921000080400055
:1048a400100078006101b8005081800061818000af
:1048b400800f5100818f590013003e002a30ef0011
:1048c4002c30ef008185800010c0b300e48f5000cd
:1048d40001003c000040eb008100e8008185880075
:1048e4000004e0000a0032002a30ef002c30ef0010
:1048f400b030ef00150ea900a470ef0005003700da
:104904000000000003003700000000000100370031
:10491400000000000080fa00000006000000fa0019
:10492400201020002070880000202000a070880043
:10493400242eef00342eef00442eef00542eef000f
:10494400001420002073880010a821000070880043
:1049540000c02f0080708800f0bf20000071880024
:10496400000620008071880000002f00007288007b
:104974003000200080728800002820000073880026
:104984000020200060708800f03f2000e070880064
:10499400804321006071880000102000e0718800cd
:1049a4004c2eef005c2eef006c2eef002010200048
:1049b400507088001a2eef002a2eef003a2eef00d6
:1049c4004a2eef005a2eef006a2eef00062eef005b
:1049d400162eef00262eef00362eef00462eef00a7
:1049e400562eef00662eef001080210070708800b4
:1049f4001e2eef002e2eef004e2eef00113a8000f7
:104a0400f00b20000081600060042000710520008c
:104a14002374200080497800814978008249780015
:104a24003136800000f82f0080806000900720005d
:104a340001007000303688002136800000f82f0015
:104a4400808060007007200001007000203688001c
:104a54009134800000fc2f00008060003000b3001f
:104a64009034880081348000f00f2c0000806000b6
:104a74000080a00080348800103a80000001780093
:104a84000260a0006004200071052000237420004f
:104a94008049780081497800824978000080fa00d2
:104aa400000006000000fa000a21ef007005200053
:104ab400700888000001280090088800805a2100ae
:104ac4008040eb00014878000080fa0000000600f6
:104ad4000000fa0001408000001020000080600007
:104ae4000000e00009003200905a210010407800d4
:104af4008040e800905a210001487800805a210043
:104b040011c0b300014878000108a9000080fa0030
:104b1400000006000200fa00000f78009e007800f2
:104b240071088800805a21008040eb000148780019
:104b34000080fa00000006000000fa0070088000ff
:104b44000080fa00000006000200fa00000f78005e
:104b54009e00780051088800805a21008040eb00b4
:104b6400014878000080fa00000006000000fa0006
:104b7400500880000080fa00000006000000fa00df
:104b8400805a21008040eb000148780013e1a8001e
:104b94000080fa00000006000000fa0013e1a900fa
:104ba4000080fa00000006000200fa00805a21008a
:104bb400104f78001e4078000004e000030032002b
:104bc400805a21008040eb00014878001e407800a4
:104bd4000080fa00000006000000fa00905a21004c
:104be400104078000080fb000080fa0000000600fe
:104bf4000000fa00905a21008040eb000148780040
:104c04000080fa00000006000000fa000621ef0010
:104c14000036200060088800000128008008880011
:104c240000e8a90020e8a8000080fa0000000600bf
:104c34000200fa00000f78009e00780061088800e6
:104c4400405a21008040eb00014878000080fa00bf
:104c5400000006000000fa00600880000080fa00ee
:104c6400000006000200fa00000f78009e007800a1
:104c740031088800405a21008040eb000148780048
:104c84000080fa00000006000000fa0030088000ee
:104c94000080fa00000006000000fa000080fa001c
:104ca400000006000200fa00000f780020e8a900c6
:104cb40020e8a8000080fa00000006000000fa00c6
:104cc400405a21008040eb000148780020e8a80009
:104cd40011e1a8000080fa00000006000000fa00bc
:104ce40011e1a90020e8a9000080fa0000000600f4
:104cf4000200fa00405a2100104f78001e4078004c
:104d04000004e00003003200405a21008040eb0020
:104d1400014878001e4078000080fa000000060078
:104d24000000fa00505a2100104078000080fb0077
:104d34000080fa00000006000000fa00505a21002a
:104d44008040eb00014878000080fa000000060073
:104d54000000fa001421ef0070052000d00888003c
:104d640000012800f0088800605a21008040eb0010
:104d7400014878000080fa00000006000000fa00f4
:104d84000080fa00000006000200fa00000f78001c
:104d94009e007800d1088800605a21008040eb0012
:104da400014878000080fa00000006000000fa00c4
:104db400d00880000080fa00000006000200fa001b
:104dc400000f78009e007800a1088800605a210036
:104dd4008040eb00014878000080fa0000000600e3
:104de4000000fa00a00880000080fa00000006001d
:104df4000000fa00605a21008040eb00014878006e
:104e04001fe1a8000080fa00000006000000fa007c
:104e14001fe1a9000080fa00000006000200fa0069
:104e2400605a2100104f78001e4078000004e00012
:104e340003003200605a21008040eb0001487800f2
:104e44001e4078000080fa00000006000000fa000e
:104e5400705a2100104078000080fb000080fa00a6
:104e6400000006000000fa00705a21008040eb00a8
:104e7400014878000080fa00000006000000fa00f3
:104e8400e10c2100914078000100fb008140e80022
:104e940081417800e20c210003497800e60f5000bc
:104ea4001f003200e60f500007003c00e20f5000e4
:104eb40011003200e40f5000140032000000e00042
:104ec4000800320027003700ea0f50001e003200ad
:104ed400ec0f500021003200e80f500015003200a2
:104ee40020003700350ea800254ea900258ea90004
:104ef40025eea9001b003700350ea900254ea80099
:104f0400258ea90025eea90016003700350ea9004c
:104f1400254ea900258ea80025eea9001100370012
:104f2400350ea900254ea900258ea90025eea8005e
:104f34000c003700350ea900254ea900258ea800c7
:104f440025eea90007003700350ea900254ea8005c
:104f5400258ea90025eea90002003700ce70ef00cf
:104f6400000000000080fa00000006000200fa00c1
:104f7400004f78001e417800210c210082487800ff
:104f84000080fa00000006000400fa00728080002d
:104f9400838080009000200001002000800f5100d9
:104fa400818f59002a0036000e30ef001030ef00d8
:104fb400208680006101b90010002000010020005b
:104fc4000202780083017800000178000100780073
:104fd40002016200008061008000eb00c000dd007f
:104fe40000002000008fbe006110b8001e1f70007a
:104ff4001e9770001e0178009e0190001000200092
:1050040001002000800f5100818f590002003a00f6
:1050140025aea8000100370025aea9002086800037
:105024000080d10020868800208680000000e000f7
:1050340007003a00c2d0bf000000fb00800040001f
:10504400c0a128000080400010007800208688005d
:105054000080fa00000006000000fa008000200032
:10506400001188002222ef006070200040118800a7
:10507400210007000080fa00000006000000fa008a
:105084000000000010118000610060000000e000da
:10509400fcff320010118000620060000000e0009c
:1050a400010032002222a900301180000040780063
:1050b4000080fa00000006000200fa00004f7800a9
:1050c400000000001111800000202000008060001a
:1050d4000000e000fbff3a001e80fb002011880066
:1050e4000080fa00000006000000fa0010118000a1
:1050f4000080fa00000006000000fa0021e2a80087
:105104002342a8000080fa00000006000000fa0014
:1051140021e2a9002342a9000080fa000000060051
:105124000000fa0080002000801188003222ef0085
:1051340060702000c0118800210007000080fa0080
:10514400000006000000fa0000000000901180003a
:10515400610060000000e000fcff3200901180005c
:10516400620060000000e000010032003222a90069
:10517400b0118000004078000080fa0000000600b2
:105184000200fa00004f7800000000009111800036
:1051940000202000008060000000e000fbff3a00d7
:1051a4001e80fb00a01188000080fa0000000600a9
:1051b4000000fa00901180000080fa000000060050
:1051c4000000fa0031e2a8003342a8000080fa008f
:1051d400000006000000fa0031e2a9003342a900f1
:1051e4000080fa00000006000800fa00200798007a
:1051f400310798002e019000be019000028fbe007e
:10520400f080800001818000be0f5000ae8f5800f6
:10521400050039001e30ef002030ef0017ff0700b3
:105224001bf4070068fa07000080fa00000006007b
:105234000000fa0050002000308488001000200094
:1052440040848800a00020005084880020002000b2
:105254006084880030002000708488006000200092
:10526400808488000080fa00000006000800fa002c
:1052740020079800310798002e019000be0190008d
:10528400028fbe00b0808000c1808000be0f50003d
:10529400ae8f58000200390020c0b300adfb0700f8
:1052a4000080fa00000006000000fa00000023005d
:1052b400203a88004827ef004e27ef009004200092
:1052c400303a88006027ef006227ef006427ef0080
:1052d4006627ef006a27ef006c27ef00120020001a
:1052e40080072000a1092000337420008049780041
:1052f400814978008249780012002000600420006f
:1053040071052000237420008049780081497800c9
:105314008249780000000000103a800061006000bb
:105324000000e000fcff3a0000000000113a800099
:1053340000022000008060000000e000fbff32005b
:105344000080fa00000006000200fa00000f780056
:1053540021028000200f2000008060001e007000e9
:10536400200288000080fa00000006000000fa0015
:10537400c3e8a80000000000000000000080fa005c
:10538400000006000000fa0064fd0700c6ff0700e5
:105394002400070062ff07002fff0700c1fd07007c
:1053a40019fe0700f1ff070000022000e6ff0700d6
:1053b4000080fa00000006000000fa00baff0700af
:1053c4000080fa00000006000000fa00003a8000a5
:1053d4000080fa00000006000000fa0071fb0700dc
:1053e4000080fa00000006000000fa00effb07004e
:1053f4000080fa0000000600000f78009e0078008c
:1054040031868800ffff37000000fa008056210033
:105414008007780000582100000188000080fa000d
:10542400000006000000fa0011428000f0ff28008e
:105434000080600000c0a000104288000080fa00d4
:04544400000006005e
:020000040000fa
:020000040001f9
:045fe000cdff0000f1
:020000040000fa
:020000040001f9
:045fe400ffff0000bb
:020000040000fa
:020000040001f9
:045fe8007bff00003b
:020000040000fa
:020000040001f9
:045fec007bff000037
:020000040000fa
:020000040001f9
:045ff000f8ff0000b6
:020000040000fa
:020000040001f9
:045ff400ffff0000ab
:00000001FF
